{
  "_format": "hh-sol-artifact-1",
  "contractName": "Election",
  "sourceName": "contracts/Election.sol",
  "abi": [
    {
      "inputs": [],
      "stateMutability": "nonpayable",
      "type": "constructor"
    },
    {
      "anonymous": false,
      "inputs": [
        {
          "indexed": true,
          "internalType": "uint256",
          "name": "candidateId",
          "type": "uint256"
        }
      ],
      "name": "CandidateRegistered",
      "type": "event"
    },
    {
      "anonymous": false,
      "inputs": [
        {
          "indexed": true,
          "internalType": "uint256",
          "name": "winningCandidateId",
          "type": "uint256"
        },
        {
          "indexed": false,
          "internalType": "string",
          "name": "winnerName",
          "type": "string"
        }
      ],
      "name": "ElectionEnded",
      "type": "event"
    },
    {
      "anonymous": false,
      "inputs": [],
      "name": "ElectionReset",
      "type": "event"
    },
    {
      "anonymous": false,
      "inputs": [
        {
          "indexed": true,
          "internalType": "uint256",
          "name": "candidateId",
          "type": "uint256"
        }
      ],
      "name": "VoteCasted",
      "type": "event"
    },
    {
      "anonymous": false,
      "inputs": [
        {
          "indexed": true,
          "internalType": "address",
          "name": "voterAddress",
          "type": "address"
        },
        {
          "indexed": false,
          "internalType": "string",
          "name": "voterName",
          "type": "string"
        },
        {
          "indexed": false,
          "internalType": "string",
          "name": "voterId",
          "type": "string"
        }
      ],
      "name": "VoterRegistered",
      "type": "event"
    },
    {
      "inputs": [],
      "name": "admin",
      "outputs": [
        {
          "internalType": "address",
          "name": "",
          "type": "address"
        }
      ],
      "stateMutability": "view",
      "type": "function"
    },
    {
      "inputs": [
        {
          "internalType": "uint256",
          "name": "",
          "type": "uint256"
        }
      ],
      "name": "candidates",
      "outputs": [
        {
          "internalType": "uint256",
          "name": "id",
          "type": "uint256"
        },
        {
          "internalType": "string",
          "name": "name",
          "type": "string"
        },
        {
          "internalType": "string",
          "name": "party",
          "type": "string"
        },
        {
          "internalType": "uint256",
          "name": "voteCount",
          "type": "uint256"
        }
      ],
      "stateMutability": "view",
      "type": "function"
    },
    {
      "inputs": [],
      "name": "candidatesCount",
      "outputs": [
        {
          "internalType": "uint256",
          "name": "",
          "type": "uint256"
        }
      ],
      "stateMutability": "view",
      "type": "function"
    },
    {
      "inputs": [],
      "name": "getPartialResults",
      "outputs": [
        {
          "internalType": "uint256[]",
          "name": "",
          "type": "uint256[]"
        },
        {
          "internalType": "string[]",
          "name": "",
          "type": "string[]"
        },
        {
          "internalType": "uint256[]",
          "name": "",
          "type": "uint256[]"
        }
      ],
      "stateMutability": "view",
      "type": "function"
    },
    {
      "inputs": [],
      "name": "getResults",
      "outputs": [
        {
          "internalType": "uint256[]",
          "name": "",
          "type": "uint256[]"
        },
        {
          "internalType": "string[]",
          "name": "",
          "type": "string[]"
        },
        {
          "internalType": "uint256[]",
          "name": "",
          "type": "uint256[]"
        }
      ],
      "stateMutability": "view",
      "type": "function"
    },
    {
      "inputs": [
        {
          "internalType": "string",
          "name": "_name",
          "type": "string"
        },
        {
          "internalType": "string",
          "name": "_party",
          "type": "string"
        }
      ],
      "name": "registerCandidate",
      "outputs": [],
      "stateMutability": "nonpayable",
      "type": "function"
    },
    {
      "inputs": [
        {
          "internalType": "string",
          "name": "_name",
          "type": "string"
        },
        {
          "internalType": "string",
          "name": "_voterId",
          "type": "string"
        }
      ],
      "name": "registerVoter",
      "outputs": [],
      "stateMutability": "nonpayable",
      "type": "function"
    },
    {
      "inputs": [],
      "name": "resetElection",
      "outputs": [],
      "stateMutability": "nonpayable",
      "type": "function"
    },
    {
      "inputs": [],
      "name": "totalVotesCast",
      "outputs": [
        {
          "internalType": "uint256",
          "name": "",
          "type": "uint256"
        }
      ],
      "stateMutability": "view",
      "type": "function"
    },
    {
      "inputs": [
        {
          "internalType": "bytes32",
          "name": "",
          "type": "bytes32"
        }
      ],
      "name": "usedVoterIds",
      "outputs": [
        {
          "internalType": "bool",
          "name": "",
          "type": "bool"
        }
      ],
      "stateMutability": "view",
      "type": "function"
    },
    {
      "inputs": [
        {
          "internalType": "uint256",
          "name": "_candidateId",
          "type": "uint256"
        },
        {
          "internalType": "bytes32",
          "name": "_voterId",
          "type": "bytes32"
        }
      ],
      "name": "vote",
      "outputs": [],
      "stateMutability": "nonpayable",
      "type": "function"
    },
    {
      "inputs": [
        {
          "internalType": "uint256",
          "name": "",
          "type": "uint256"
        }
      ],
      "name": "voterAddresses",
      "outputs": [
        {
          "internalType": "address",
          "name": "",
          "type": "address"
        }
      ],
      "stateMutability": "view",
      "type": "function"
    },
    {
      "inputs": [
        {
          "internalType": "address",
          "name": "",
          "type": "address"
        }
      ],
      "name": "voters",
      "outputs": [
        {
          "internalType": "bool",
          "name": "registered",
          "type": "bool"
        },
        {
          "internalType": "bool",
          "name": "hasVoted",
          "type": "bool"
        },
        {
          "internalType": "string",
          "name": "name",
          "type": "string"
        },
        {
          "internalType": "string",
          "name": "voterId",
          "type": "string"
        },
        {
          "internalType": "uint256",
          "name": "voteCandidateId",
          "type": "uint256"
        }
      ],
      "stateMutability": "view",
      "type": "function"
    }
  ],
  "bytecode": "0x608060405234801561001057600080fd5b5033600560006101000a81548173ffffffffffffffffffffffffffffffffffffffff021916908373ffffffffffffffffffffffffffffffffffffffff16021790555060006004819055506121c1806100696000396000f3fe608060405234801561001057600080fd5b50600436106100cf5760003560e01c80637de418d51161008c578063a3ec138d11610066578063a3ec138d14610207578063dd0e23731461023b578063e8f305231461026b578063f851a44014610275576100cf565b80637de418d5146101ad5780638a4c8847146101cb5780639503ca98146101e7576100cf565b80630dbce4dd146100d45780632d35a8a2146100f05780633477ee2e1461010e5780634717f97c1461014157806368bb8bb6146101615780636ec55fe11461017d575b600080fd5b6100ee60048036038101906100e991906114c6565b610293565b005b6100f8610359565b6040516101059190611557565b60405180910390f35b6101286004803603810190610123919061159e565b61035f565b604051610138949392919061164a565b60405180910390f35b61014961049f565b60405161015893929190611867565b60405180910390f35b61017b600480360381019061017691906118e9565b610715565b005b61019760048036038101906101929190611929565b610a27565b6040516101a49190611971565b60405180910390f35b6101b5610a47565b6040516101c29190611557565b60405180910390f35b6101e560048036038101906101e091906114c6565b610a4d565b005b6101ef610c7a565b6040516101fe93929190611867565b60405180910390f35b610221600480360381019061021c91906119ea565b610ef0565b604051610232959493929190611a17565b60405180910390f35b6102556004803603810190610250919061159e565b611050565b6040516102629190611a87565b60405180910390f35b61027361108f565b005b61027d6112c8565b60405161028a9190611a87565b60405180910390f35b600360008154809291906102a690611ad1565b919050555060405180608001604052806003548152602001838152602001828152602001600081525060008060035481526020019081526020016000206000820151816000015560208201518160010190816103029190611d25565b5060408201518160020190816103189190611d25565b50606082015181600301559050506003547f43dcee486fabffa2fb551555bfaa5bfcf6a42f2d014032ccef94bf09d83855eb60405160405180910390a25050565b60035481565b600060205280600052604060002060009150905080600001549080600101805461038890611b48565b80601f01602080910402602001604051908101604052809291908181526020018280546103b490611b48565b80156104015780601f106103d657610100808354040283529160200191610401565b820191906000526020600020905b8154815290600101906020018083116103e457829003601f168201915b50505050509080600201805461041690611b48565b80601f016020809104026020016040519081016040528092919081815260200182805461044290611b48565b801561048f5780601f106104645761010080835404028352916020019161048f565b820191906000526020600020905b81548152906001019060200180831161047257829003601f168201915b5050505050908060030154905084565b6060806060600060035467ffffffffffffffff8111156104c2576104c161139b565b5b6040519080825280602002602001820160405280156104f05781602001602082028036833780820191505090505b509050600060035467ffffffffffffffff8111156105115761051061139b565b5b60405190808252806020026020018201604052801561054457816020015b606081526020019060019003908161052f5790505b509050600060035467ffffffffffffffff8111156105655761056461139b565b5b6040519080825280602002602001820160405280156105935781602001602082028036833780820191505090505b5090506000600190505b60035481116107035760008082815260200190815260200160002060000154846001836105ca9190611df7565b815181106105db576105da611e2b565b5b602002602001018181525050600080828152602001908152602001600020600101805461060790611b48565b80601f016020809104026020016040519081016040528092919081815260200182805461063390611b48565b80156106805780601f1061065557610100808354040283529160200191610680565b820191906000526020600020905b81548152906001019060200180831161066357829003601f168201915b5050505050836001836106939190611df7565b815181106106a4576106a3611e2b565b5b602002602001018190525060008082815260200190815260200160002060030154826001836106d39190611df7565b815181106106e4576106e3611e2b565b5b60200260200101818152505080806106fb90611ad1565b91505061059d565b50828282955095509550505050909192565b6002600082815260200190815260200160002060009054906101000a900460ff1615610776576040517f08c379a000000000000000000000000000000000000000000000000000000000815260040161076d90611ecc565b60405180910390fd5b600160003373ffffffffffffffffffffffffffffffffffffffff1673ffffffffffffffffffffffffffffffffffffffff16815260200190815260200160002060000160009054906101000a900460ff16610805576040517f08c379a00000000000000000000000000000000000000000000000000000000081526004016107fc90611f5e565b60405180910390fd5b600160003373ffffffffffffffffffffffffffffffffffffffff1673ffffffffffffffffffffffffffffffffffffffff16815260200190815260200160002060000160019054906101000a900460ff1615610895576040517f08c379a000000000000000000000000000000000000000000000000000000000815260040161088c90611fca565b60405180910390fd5b6000821180156108a757506003548211155b6108e6576040517f08c379a00000000000000000000000000000000000000000000000000000000081526004016108dd90612036565b60405180910390fd5b60018060003373ffffffffffffffffffffffffffffffffffffffff1673ffffffffffffffffffffffffffffffffffffffff16815260200190815260200160002060000160016101000a81548160ff02191690831515021790555081600160003373ffffffffffffffffffffffffffffffffffffffff1673ffffffffffffffffffffffffffffffffffffffff1681526020019081526020016000206003018190555060016002600083815260200190815260200160002060006101000a81548160ff02191690831515021790555060008083815260200190815260200160002060030160008154809291906109d990611ad1565b9190505550600460008154809291906109f190611ad1565b9190505550817f94b9b209597b37568a0fb4b924237e6e679e8e7bb88cf375dbcf4229c2d5e64260405160405180910390a25050565b60026020528060005260406000206000915054906101000a900460ff1681565b60045481565b600160003373ffffffffffffffffffffffffffffffffffffffff1673ffffffffffffffffffffffffffffffffffffffff16815260200190815260200160002060000160009054906101000a900460ff1615610add576040517f08c379a0000000000000000000000000000000000000000000000000000000008152600401610ad4906120a2565b60405180910390fd5b6040518060a001604052806001151581526020016000151581526020018381526020018281526020016000815250600160003373ffffffffffffffffffffffffffffffffffffffff1673ffffffffffffffffffffffffffffffffffffffff16815260200190815260200160002060008201518160000160006101000a81548160ff02191690831515021790555060208201518160000160016101000a81548160ff0219169083151502179055506040820151816001019081610b9f9190611d25565b506060820151816002019081610bb59190611d25565b50608082015181600301559050506006339080600181540180825580915050600190039060005260206000200160009091909190916101000a81548173ffffffffffffffffffffffffffffffffffffffff021916908373ffffffffffffffffffffffffffffffffffffffff1602179055503373ffffffffffffffffffffffffffffffffffffffff167f96ac7a421360a2bd773d747b2f64b40a916821c4906dbfdebf787c292e741f7d8383604051610c6e9291906120c2565b60405180910390a25050565b6060806060600060035467ffffffffffffffff811115610c9d57610c9c61139b565b5b604051908082528060200260200182016040528015610ccb5781602001602082028036833780820191505090505b509050600060035467ffffffffffffffff811115610cec57610ceb61139b565b5b604051908082528060200260200182016040528015610d1f57816020015b6060815260200190600190039081610d0a5790505b509050600060035467ffffffffffffffff811115610d4057610d3f61139b565b5b604051908082528060200260200182016040528015610d6e5781602001602082028036833780820191505090505b5090506000600190505b6003548111610ede576000808281526020019081526020016000206000015484600183610da59190611df7565b81518110610db657610db5611e2b565b5b6020026020010181815250506000808281526020019081526020016000206001018054610de290611b48565b80601f0160208091040260200160405190810160405280929190818152602001828054610e0e90611b48565b8015610e5b5780601f10610e3057610100808354040283529160200191610e5b565b820191906000526020600020905b815481529060010190602001808311610e3e57829003601f168201915b505050505083600183610e6e9190611df7565b81518110610e7f57610e7e611e2b565b5b60200260200101819052506000808281526020019081526020016000206003015482600183610eae9190611df7565b81518110610ebf57610ebe611e2b565b5b6020026020010181815250508080610ed690611ad1565b915050610d78565b50828282955095509550505050909192565b60016020528060005260406000206000915090508060000160009054906101000a900460ff16908060000160019054906101000a900460ff1690806001018054610f3990611b48565b80601f0160208091040260200160405190810160405280929190818152602001828054610f6590611b48565b8015610fb25780601f10610f8757610100808354040283529160200191610fb2565b820191906000526020600020905b815481529060010190602001808311610f9557829003601f168201915b505050505090806002018054610fc790611b48565b80601f0160208091040260200160405190810160405280929190818152602001828054610ff390611b48565b80156110405780601f1061101557610100808354040283529160200191611040565b820191906000526020600020905b81548152906001019060200180831161102357829003601f168201915b5050505050908060030154905085565b6006818154811061106057600080fd5b906000526020600020016000915054906101000a900473ffffffffffffffffffffffffffffffffffffffff1681565b600560009054906101000a900473ffffffffffffffffffffffffffffffffffffffff1673ffffffffffffffffffffffffffffffffffffffff163373ffffffffffffffffffffffffffffffffffffffff161461111f576040517f08c379a00000000000000000000000000000000000000000000000000000000081526004016111169061216b565b60405180910390fd5b6000600190505b60035481116111875760008082815260200190815260200160002060008082016000905560018201600061115a91906112ee565b60028201600061116a91906112ee565b60038201600090555050808061117f90611ad1565b915050611126565b50600060038190555060005b6006805490508110156112835760016000600683815481106111b8576111b7611e2b565b5b9060005260206000200160009054906101000a900473ffffffffffffffffffffffffffffffffffffffff1673ffffffffffffffffffffffffffffffffffffffff1673ffffffffffffffffffffffffffffffffffffffff168152602001908152602001600020600080820160006101000a81549060ff02191690556000820160016101000a81549060ff021916905560018201600061125691906112ee565b60028201600061126691906112ee565b60038201600090555050808061127b90611ad1565b915050611193565b5060066000611292919061132e565b60006004819055507f8d1085cd9eceaab0b77fd20c66dea55df08e5ef2d52859c2cb4a1e16ba9476c060405160405180910390a1565b600560009054906101000a900473ffffffffffffffffffffffffffffffffffffffff1681565b5080546112fa90611b48565b6000825580601f1061130c575061132b565b601f01602090049060005260206000209081019061132a919061134f565b5b50565b508054600082559060005260206000209081019061134c919061134f565b50565b5b80821115611368576000816000905550600101611350565b5090565b6000604051905090565b600080fd5b600080fd5b600080fd5b600080fd5b6000601f19601f8301169050919050565b7f4e487b7100000000000000000000000000000000000000000000000000000000600052604160045260246000fd5b6113d38261138a565b810181811067ffffffffffffffff821117156113f2576113f161139b565b5b80604052505050565b600061140561136c565b905061141182826113ca565b919050565b600067ffffffffffffffff8211156114315761143061139b565b5b61143a8261138a565b9050602081019050919050565b82818337600083830152505050565b600061146961146484611416565b6113fb565b90508281526020810184848401111561148557611484611385565b5b611490848285611447565b509392505050565b600082601f8301126114ad576114ac611380565b5b81356114bd848260208601611456565b91505092915050565b600080604083850312156114dd576114dc611376565b5b600083013567ffffffffffffffff8111156114fb576114fa61137b565b5b61150785828601611498565b925050602083013567ffffffffffffffff8111156115285761152761137b565b5b61153485828601611498565b9150509250929050565b6000819050919050565b6115518161153e565b82525050565b600060208201905061156c6000830184611548565b92915050565b61157b8161153e565b811461158657600080fd5b50565b60008135905061159881611572565b92915050565b6000602082840312156115b4576115b3611376565b5b60006115c284828501611589565b91505092915050565b600081519050919050565b600082825260208201905092915050565b60005b838110156116055780820151818401526020810190506115ea565b60008484015250505050565b600061161c826115cb565b61162681856115d6565b93506116368185602086016115e7565b61163f8161138a565b840191505092915050565b600060808201905061165f6000830187611548565b81810360208301526116718186611611565b905081810360408301526116858185611611565b90506116946060830184611548565b95945050505050565b600081519050919050565b600082825260208201905092915050565b6000819050602082019050919050565b6116d28161153e565b82525050565b60006116e483836116c9565b60208301905092915050565b6000602082019050919050565b60006117088261169d565b61171281856116a8565b935061171d836116b9565b8060005b8381101561174e57815161173588826116d8565b9750611740836116f0565b925050600181019050611721565b5085935050505092915050565b600081519050919050565b600082825260208201905092915050565b6000819050602082019050919050565b600082825260208201905092915050565b60006117a3826115cb565b6117ad8185611787565b93506117bd8185602086016115e7565b6117c68161138a565b840191505092915050565b60006117dd8383611798565b905092915050565b6000602082019050919050565b60006117fd8261175b565b6118078185611766565b93508360208202850161181985611777565b8060005b85811015611855578484038952815161183685826117d1565b9450611841836117e5565b925060208a0199505060018101905061181d565b50829750879550505050505092915050565b6000606082019050818103600083015261188181866116fd565b9050818103602083015261189581856117f2565b905081810360408301526118a981846116fd565b9050949350505050565b6000819050919050565b6118c6816118b3565b81146118d157600080fd5b50565b6000813590506118e3816118bd565b92915050565b60008060408385031215611900576118ff611376565b5b600061190e85828601611589565b925050602061191f858286016118d4565b9150509250929050565b60006020828403121561193f5761193e611376565b5b600061194d848285016118d4565b91505092915050565b60008115159050919050565b61196b81611956565b82525050565b60006020820190506119866000830184611962565b92915050565b600073ffffffffffffffffffffffffffffffffffffffff82169050919050565b60006119b78261198c565b9050919050565b6119c7816119ac565b81146119d257600080fd5b50565b6000813590506119e4816119be565b92915050565b600060208284031215611a00576119ff611376565b5b6000611a0e848285016119d5565b91505092915050565b600060a082019050611a2c6000830188611962565b611a396020830187611962565b8181036040830152611a4b8186611611565b90508181036060830152611a5f8185611611565b9050611a6e6080830184611548565b9695505050505050565b611a81816119ac565b82525050565b6000602082019050611a9c6000830184611a78565b92915050565b7f4e487b7100000000000000000000000000000000000000000000000000000000600052601160045260246000fd5b6000611adc8261153e565b91507fffffffffffffffffffffffffffffffffffffffffffffffffffffffffffffffff8203611b0e57611b0d611aa2565b5b600182019050919050565b7f4e487b7100000000000000000000000000000000000000000000000000000000600052602260045260246000fd5b60006002820490506001821680611b6057607f821691505b602082108103611b7357611b72611b19565b5b50919050565b60008190508160005260206000209050919050565b60006020601f8301049050919050565b600082821b905092915050565b600060088302611bdb7fffffffffffffffffffffffffffffffffffffffffffffffffffffffffffffffff82611b9e565b611be58683611b9e565b95508019841693508086168417925050509392505050565b6000819050919050565b6000611c22611c1d611c188461153e565b611bfd565b61153e565b9050919050565b6000819050919050565b611c3c83611c07565b611c50611c4882611c29565b848454611bab565b825550505050565b600090565b611c65611c58565b611c70818484611c33565b505050565b5b81811015611c9457611c89600082611c5d565b600181019050611c76565b5050565b601f821115611cd957611caa81611b79565b611cb384611b8e565b81016020851015611cc2578190505b611cd6611cce85611b8e565b830182611c75565b50505b505050565b600082821c905092915050565b6000611cfc60001984600802611cde565b1980831691505092915050565b6000611d158383611ceb565b9150826002028217905092915050565b611d2e826115cb565b67ffffffffffffffff811115611d4757611d4661139b565b5b611d518254611b48565b611d5c828285611c98565b600060209050601f831160018114611d8f5760008415611d7d578287015190505b611d878582611d09565b865550611def565b601f198416611d9d86611b79565b60005b82811015611dc557848901518255600182019150602085019450602081019050611da0565b86831015611de25784890151611dde601f891682611ceb565b8355505b6001600288020188555050505b505050505050565b6000611e028261153e565b9150611e0d8361153e565b9250828203905081811115611e2557611e24611aa2565b5b92915050565b7f4e487b7100000000000000000000000000000000000000000000000000000000600052603260045260246000fd5b7f5468697320515220636f64652068617320616c7265616479206265656e20757360008201527f6564000000000000000000000000000000000000000000000000000000000000602082015250565b6000611eb66022836115d6565b9150611ec182611e5a565b604082019050919050565b60006020820190508181036000830152611ee581611ea9565b9050919050565b7f596f7520617265206e6f742072656769737465726564206173206120766f746560008201527f7200000000000000000000000000000000000000000000000000000000000000602082015250565b6000611f486021836115d6565b9150611f5382611eec565b604082019050919050565b60006020820190508181036000830152611f7781611f3b565b9050919050565b7f596f75206861766520616c726561647920766f74656400000000000000000000600082015250565b6000611fb46016836115d6565b9150611fbf82611f7e565b602082019050919050565b60006020820190508181036000830152611fe381611fa7565b9050919050565b7f496e76616c69642063616e646964617465204944000000000000000000000000600082015250565b60006120206014836115d6565b915061202b82611fea565b602082019050919050565b6000602082019050818103600083015261204f81612013565b9050919050565b7f566f74657220697320616c726561647920726567697374657265640000000000600082015250565b600061208c601b836115d6565b915061209782612056565b602082019050919050565b600060208201905081810360008301526120bb8161207f565b9050919050565b600060408201905081810360008301526120dc8185611611565b905081810360208301526120f08184611611565b90509392505050565b7f4f6e6c792061646d696e2063616e20706572666f726d2074686973206163746960008201527f6f6e000000000000000000000000000000000000000000000000000000000000602082015250565b60006121556022836115d6565b9150612160826120f9565b604082019050919050565b6000602082019050818103600083015261218481612148565b905091905056fea26469706673582212203639b453b963f0f2784129fbd39893e4f04602a2e6b6b5a27ef1318aa4c90a5864736f6c63430008140033",
  "linkReferences": {},
  "deployedLinkReferences": {}
}